S01B00006275696C642F6D69636132646F742F6D61696E2E73726563E3
S11300000C9446010C9463010C9463010C946301F9
S11300100C9463010C9463010C9463010C946301CC
S11300200C9463010C9463010C9463010C946301BC
S11300300C9463010C9463010C9463010C946301AC
S11300400C9463010C9463010C9463010C9463019C
S11300500C9463010C9463010C9463010C9463018C
S11300600C9463010C9463010C9463010C9463017C
S11300700C9463010C9465010C9463010C9463016A
S11300800C9463010C9463010C946301000021102F
S1130090422063308440A550C660E77008812991EE
S11300A04AA16BB18CC1ADD1CEE1EFF13112100296
S11300B073325222B5529442F772D662399318833E
S11300C07BB35AA3BDD39CC3FFF3DEE36224433462
S11300D020040114E664C774A44485546AA54BB58E
S11300E028850995EEE5CFF5ACC58DD55336722636
S11300F011163006D776F6669556B4465BB77AA7DE
S113010019973887DFF7FEE79DD7BCC7C448E55881
S11301108668A7784008611802282338CCC9EDD92D
S11301208EE9AFF9488969990AA92BB9F55AD44AD5
S1130130B77A966A711A500A333A122AFDDBDCCB7D
S1130140BFFB9EEB799B588B3BBB1AABA66C877CA1
S1130150E44CC55C222C033C600C411CAEED8FFDCD
S1130160ECCDCDDD2AAD0BBD688D499D977EB66E75
S1130170D55EF44E133E322E511E700E9FFFBEEF1D
S1130180DDDFFCCF1BBF3AAF599F788F8891A981DF
S1130190CAB1EBA10CD12DC14EF16FE18010A100C9
S11301A0C230E3200450254046706760B9839893B9
S11301B0FBA3DAB33DC31CD37FE35EF3B102901219
S11301C0F322D2323542145277625672EAB5CBA585
S11301D0A89589856EF54FE52CD50DC5E234C32469
S11301E0A01481046674476424540544DBA7FAB759
S11301F09987B8975FE77EF71DC73CD7D326F236B9
S11302009106B01657667676154634564CD96DC9A4
S11302100EF92FE9C899E9898AB9ABA94458654808
S113022006782768C018E1088238A3287DCB5CDBF8
S11302303FEB1EFBF98BD89BBBAB9ABB754A545A58
S1130240376A167AF10AD01AB32A923A2EFD0FEDC4
S11302506CDD4DCDAABD8BADE89DC98D267C076CA8
S1130260645C454CA23C832CE01CC10C1FEF3EFF98
S11302705DCF7CDF9BAFBABFD98FF89F176E367EF8
S1130280554E745E932EB23ED10EF01E11241FBE45
S1130290CFEFD0E1DEBFCDBF11E0A0E0B1E0E6EBEF
S11302A0F2E200E00BBF02C007900D92A430B10748
S11302B0D9F712E0A4E0B1E001C01D92A033B10768
S11302C0E1F70C949B010C9400001F920F920FB65F
S11302D00F9211248F939F9380913A0190913B0147
S11302E0019690933B0180933A019F918F910F90D7
S11302F00FBE0F901F901895BC018FB7F894482F2C
S1130300552720917E01E22FFF27EE0FFF1FE05BB0
S1130310FE4F80819181892B51F42F5F27702093A8
S11303207E01608371834FBF81E090E008954FBFE9
S113033080E090E00895CFEFD0E1DEBFCDBF1ABAE0
S113034017BA11BA82E082B983B98B98909161008F
S11303509F779093610014BA9FEF95BB17988D9A7D
S11303608F9A8E9ABB98BF988F5F8C5F8739E8F31A
S113037090E08AE080932F0190937E019093730123
S113038080E591E0FC019C01225F3F4F11921192A4
S1130390029628173907D4F710928B0010928A001E
S11303A08FB7F894282F332780917D008170846063
S11303B080937D002FBF1092330110924701109259
S11303C0460110929801109297018BEA90E0809375
S11303D011028093120210928301109284011092F0
S11303E00501109204018FB7F89499271092100216
S11303F0D29ADA9A8FBF1092450110923901109265
S1130400350181E08093930180E098E09093690145
S113041080936801909366018093650180916A01DD
S11304209091670182609260827E80936A01927EDD
S113043090936701159A1D9ADB98D39ADF9AD79AFD
S1130440DE98D69884E090E090931701809316018B
S113045010927B0110926201109261012FEF30E043
S1130460EBE6F1E087E090E0219301974FEF8F3FB7
S11304709407D1F78FB7F894992710921002D29A63
S1130480DA9A8FBF86EE9FE00E947C01109282016F
S113049082E080938A0041E050E080E098E090930D
S11304A04701809346018FB7F89499272091220140
S11304B0409322018FBF222311F4EA0102C0C0E05D
S11304C0D0E0C130B9F480911101813029F48BE37B
S11304D091E10E947C010EC082E090E090930201C1
S11304E08093010110920B018BE992E00E947C0140
S11304F0C093360178948FB7F894482F552790917C
S11305007301E92FFF27EE0FFF1FE05BFE4F2081F1
S113051031812115310529F4789488950000000073
S1130520EACF108211829F5F9770909373014FBF3F
S1130530F9010995E0CFEF92FF920F931F93609119
S113054001017091020190910B0182E080933801C6
S113055080938201892F9927EE24FF2406E010E07E
S113056023E232E0AC0181E00E94D1029927882382
S113057011F0992704C08093760180E090E08130E7
S113058059F08FB7F894282F3327DA988091100206
S11305908160809310022FBF1F910F91FF90EF9005
S11305A00895EF92FF920F931F93E82F88E0603035
S11305B0780790F4F1E048305F0770F481E0093087
S11305C0180750F4CA01800F911F8950914020F4FC
S11305D080914501882319F080E090E040C0E093C9
S11305E04501E0919A01EE2329F08EE390E10E9407
S11305F07C0133C03093750120937401109315016D
S11306000093140170932D0160932C0150932E02DA
S113061040932D02F0929F01E0929E01809165012A
S1130620909166016817790719F4E0931E0113C0CD
S113063080916801909169016817790721F481E03C
S113064080931E0108C09E2F80911E01882309F407
S113065091E090931E010E94920A81E090E01F9124
S11306600F91FF90EF900895CF93DF93582F8091CF
S113067045011092450199278430910509F47DC103
S1130680853091055CF48230910509F49CC1833076
S113069091050CF010C1019749F095C1873091057F
S11306A00CF491C109970CF08EC150C1209138010E
S11306B02223B9F5513029F5C0910A02D0910B02D9
S11306C042E050E063E172E0CE010E94E6048091D2
S11306D04401882351F09927AC0165E172E08091CF
S11306E07F01909180010E94E604888190914401E9
S11306F0891B8093A001882309F465C188EF9FE0DA
S11307005BC18091820199278130910509F45BC115
S1130710823091050CF057C1892B09F054C1822F06
S113072011C0213091F48091820199278130910583
S113073009F449C1823091050CF045C1892B09F0B7
S113074042C1852F0E94F9043EC1223009F03BC109
S11307508091820199278130910509F434C1823056
S113076091050CF430C1029709F02DC18091360136
S1130770282F33272130310529F02230310509F49F
S113078067C021C120912402309125028FEF2F3FB1
S1130790380721F180910C0190910D018217930784
S11307A0E8F41092230240E066E070E083E292E015
S11307B00E944205809124029091250290930D019C
S11307C080930C01809101019091020190930F019B
S11307D080930E0180910B018093100120910B01F5
S11307E080E091E0821B9109069720F02A5F209314
S11307F00B012BC010920B01809101019091020119
S1130800019690930201809301010497F1F4809181
S11308100C0190910D01892B49F482E090E09093B2
S11308200201809301018BE391E1C6C080910E0126
S113083090910F0190930201809301018091100126
S113084080930B0182E0809336018BE992E0B4C07F
S113085010920B01809101019091020101969093F5
S1130860020180930101049721F430930201209343
S1130870010183E69AE00E947C018BE391E10E94EE
S11308807C018FB7F894282F332781E080932301CC
S11308902FBF9091090283E0989FC00111248A5DC3
S11308A09D4F43E050E0BC0182EA91E00E94E604DF
S11308B086E091E181C05130A9F520918501309104
S11308C0860187E08093450140919A01442319F001
S11308D08EE390E171C08091650190916601821769
S11308E0930719F440931E010DC080916801909103
S11308F069018217930719F450931E0103C08AE318
S113090090E15AC080911E019927FC01EE0FFF1F50
S1130910E80FF91FE959FE4F8081877E80830E948A
S1130920920A51C08091820199278130910509F47E
S11309304AC0823091051CF4892B21F044C00297EF
S113094019F041C080E012C080E014C0809182019F
S1130950992781309105B9F1823091051CF4892BD6
S113096021F031C0029729F02EC0852F0E946D0E10
S11309702AC0852F0E943C0E26C0809182018130BE
S113098011F5513061F08FB7F894282F3327DA9896
S1130990809110028160809310022FBF14C02091B7
S11309A09701309198018091460190914701281751
S11309B0390728F484E19FE00E947C0104C010926E
S11309C0980110929701DF91CF9108959C01D9016C
S11309D0FB01415050408FEF4F3F580741F0819148
S11309E08D93415050408FEF4F3F5807C1F7C901D5
S11309F00895CF93C82F809337018130D9F5E091C2
S1130A001201F09113013097A9F180911A0190918C
S1130A104E01891B808380912F02882359F12091F4
S1130A2063013091640180914E01992740E0BC013B
S1130A30C9010E944205282F3327A0912002B091BA
S1130A402102E0911201F091130180819927422F34
S1130A50BC01CD010E944205982FE0918A01F091DA
S1130A608B01309731F080911B01981711F4C083EA
S1130A7001C0108281EC9FE00E947C0181E090E043
S1130A80CF910895FC016115710591F021912427FE
S1130A9080E0922F990F8F5F27FF03C027E029275B
S1130AA001C0292F8830A8F3422F6150704071F79C
S1130AB0842F99270895813061F08FB7F894282FF7
S1130AC03327DA98809110028160809310022FBF3F
S1130AD0089580913001882351F48091220299274E
S1130AE0892B41F588EB9BE00197F1F7089582305B
S1130AF0D9F443E050E06AE471E08FE191E00E94B0
S1130B00E60480911F01909120018F5F9F4F39F47B
S1130B10809121018F3F19F48BE995E002C08BE0AD
S1130B2097E00E947C010895833021F488E790E1E6
S1130B300E947C0108958091090190910A01892BFA
S1130B4021F481E080930001089540E050E06FE1DA
S1130B5071E081E00E94C405813061F08FB7F894A0
S1130B60282F3327DA988091100281608093100235
S1130B702FBF08958091090190910A0101979093E4
S1130B800A01809309010895AF92BF92CF92DF9238
S1130B90EF92FF920F931F93CF93DF93CDB7DEB7FE
S1130BA021970FB6F894DEBF0FBECDBFD82E8B01B0
S1130BB07A01282F3327F901EE0FFF1FEE0FFF1FD5
S1130BC0EC5DFE4F808191818F5F9F4F19F482818C
S1130BD08F3FF9F0C901880F991F880F991F8C5D09
S1130BE09E4F5E010894A11CB11CCC2423E0AC01EF
S1130BF0BC0181E00E942306813071F08FB7F89424
S1130C00282F3327DA988091100281608093100294
S1130C102FBF80E090E006C0D092600110923401B2
S1130C2081E090E021960FB6F894DEBF0FBECDBFF1
S1130C30DF91CF911F910F91FF90EF90DF90CF90B4
S1130C40BF90AF9008957F928F929F92AF92BF9280
S1130C50CF92DF92EF92FF920F931F93CF93DF9384
S1130C60782EEB014A01D22E0E94F906813009F058
S1130C70ADC082E08093290270924D0128813981B0
S1130C8030938801209387016A816093890190924F
S1130C90640180926301D0924E011093210200936B
S1130CA02002F0921301E0921201C0922F02B0923E
S1130CB08B01A0928A018091160190911701281747
S1130CC0390709F047C040917B01641708F442C01A
S1130CD0262F3327842F9927089628173907D4F508
S1130CE0809108018130B1F5641BC62FDD27FE0118
S1130CF0E559FE4FF080FD1879F00115110561F0FA
S1130D002F2D3327CE018D0D911D83599E4FA9019F
S1130D10BC01C8010E94E604E0911201F0911301A4
S1130D20309709F0F08280914E01882359F0992779
S1130D30C359DE4FAC01BE018091630190916401FF
S1130D400E94E60481E08093370181EC9FE00E94D9
S1130D507C013FC0609187017091880120918901D5
S1130D6030914E01109238018AE191E090930B0288
S1130D7080930A029092800180927F01109319015E
S1130D8000931801309344017093860160938501A8
S1130D9020931F0210928201422F5527832F9927F7
S1130DA00296EE24FF248C0123E132E081E00E94CC
S1130DB0D1029927882311F0992704C080937601E2
S1130DC080E090E0813029F01092060180E090E00C
S1130DD002C081E090E0DF91CF911F910F91FF90CD
S1130DE0EF90DF90CF90BF90AF909F908F907F90C7
S1130DF008958FB7F894282F33279091060181E046
S1130E00809306012FBF981719F081E090E00895B0
S1130E1080E090E00895CF92DF92EF920F9380915B
S1130E2028019091290190932B0280932A028091AA
S1130E302A0180932C0280912B0158E2C52E51E0A7
S1130E40D52EE82E03E02FE131E0402F6AE272E074
S1130E5081E00E9463079927813071F08FB7F8947D
S1130E60282F3327DA988091100281608093100232
S1130E702FBF80E090E00BC010920D0210920C0284
S1130E808093600182E08093340181E090E08130BE
S1130E9061F08FB7F894282F3327DA9880911002E5
S1130EA08160809310022FBF09C080910901909145
S1130EB00A01019690930A01809309010F91EF9022
S1130EC0DF90CF900895AF92BF92CF92DF92EF92CE
S1130ED0FF920F931F93CF93DF93F82EEB01142F00
S1130EE059010E94F906813069F580932902F09234
S1130EF04D01412F400F4E5F493010F5D0936401EE
S1130F00C093630110934E01B0922102A09220027B
S1130F1000939B01E0922F02D0929201C092910122
S1130F205527209161013091620188E090E0821B95
S1130F30930B8417950748F40E94B407813039F065
S1130F401092060180E090E004C00E94FC0781E05A
S1130F5090E0DF91CF911F910F91FF90EF90DF9080
S1130F60CF90BF90AF900895EF92FF920F931F938D
S1130F708091610190916201892B79F48091290219
S1130F80813019F40E94FC0730C081E0809337015E
S1130F908CE49FE00E947C0128C06091160170914E
S1130FA0170180917B019091610170938601609398
S1130FB0850110928201482F5527892F9927EE2405
S1130FC0FF248C012BE631E083E00E94D1029927B3
S1130FD0882311F0992704C08093760180E090E083
S1130FE0813019F080E090E002C081E090E01F9130
S1130FF00F91FF90EF9008951F93CF93DF9310E02C
S1131000E0919101F0919201809116019091170164
S11310108083918380917B0190916101890F828308
S11310202091610130916201E901C559DE4F40917F
S11310304E0180919B01840F88832E5F3F4F309334
S1131040620120936101442331F1842F99272559AA
S11310503E4FAC016091630170916401C9010E942B
S1131060E60480914E01682F772780916101909169
S11310706201860F971F90936201809361018091B2
S11310802F02882341F08091630190916401412FE4
S11310900E944205182F20919B01222341F13327FE
S11310A0809161019091620185599E4FA9016091DF
S11310B02002709121020E94E60480919B01682F16
S11310C077278091610190916201860F971F909319
S11310D062018093610180912F02882341F0809105
S11310E0200290912102412F0E944205182F19835A
S11310F081E080933701809308018FE99FE00E948B
S11311007C01DF91CF911F910895CF93C82F8091D7
S11311103001813061F5C130A9F420911C01309176
S11311201D012115310571F09091220287E0989FED
S1131130C0011124835C9E4F43E050E0BC01C9010F
S11311400E94E604809122029927892B11F5CC2371
S113115081F088EB9BE00197F1F780913101909148
S113116032010196909332018093310112C0C13053
S113117061F08FB7F894282F3327DA988091100202
S11311808160809310022FBF04C08BE995E00E9418
S11311907C01CF910895CF93C82F8130B1F4209171
S11311A00C0230910D022115310579F08091600116
S11311B09927880F991F880F991F8C5D9E4F43E0D4
S11311C050E0BC01C9010E94E604C09390018DEE79
S11311D098E00E947C01CF9108951F93CF93DF93F1
S11311E08091340199278130910509F486C08230B9
S11311F091051CF4892B29F080C0029709F441C0A1
S11312007CC08091600110919001C82FDD27209748
S113121019F0219789F171C01130D1F442E050E006
S113122065EA71E086E191E00E94E604809116018E
S11312309091170101969093170180931601C35C56
S1131240DE4F43E050E067EA71E0CE010E94E6041D
S113125043E050E064E271E082EA91E00E94E60437
S11312608091090262EA71E00E948109813009F4E7
S113127044C01093810114C0113079F582ED90E1DE
S11312803AC08091600190919001C82FDD2720978A
S113129019F0219701F131C0992329F49093810128
S11312A08BEF99E028C00E94F906813011F0CE013D
S11312B00CC01092290282E080934D010E94B40771
S11312C0813011F0109206019927992780938101AA
S11312D0813099F0E5CF913061F08FB7F894282FE1
S11312E03327DA98809110028160809310022FBF17
S11312F004C08BE490E10E947C01DF91CF911F91A7
S11313000895EF92FF920F931F93CF93482F8FB7B7
S1131310F894282F33279091220181E080932201B1
S11313202FBF992319F481E090E002C080E090E09F
S1131330813019F080E090E058C0C3E04C9FC001B8
S113134011248A5D9D4F43E050E00E94E6048FB76C
S11313508078F8942091880030918900882309F0DE
S1131360789430932502209324021092230240E0C3
S113137066E070E083E292E00E94420580932302DB
S1131380609101017091020190910B0170938601AB
S11313906093850182E080938201892F9927EE244E
S11313A0FF2406E010E023E232E0AC018C2F0E941F
S11313B0D1029927882311F0992704C080937601DC
S11313C080E090E0813061F08FB7F894282F3327C4
S11313D0DA98809110028160809310022FBF03C0BD
S11313E083E08093360181E090E0CF911F910F91CB
S11313F0FF90EF900895109223018091A101992705
S1131400009719F0019789F008958091810188234C
S1131410D9F48FB7F894282F3327DA9880911002E3
S11314208160809310022FBF0895809181018823E9
S113143059F48FB7F894282F3327DA988091100243
S11314408160809310022FBF0895882359F48FB7C9
S1131450F894282F3327DA988091100281608093C2
S113146010022FBF0895CF93C82F813041F480918B
S1131470090262EA71E00E948109813031F0C0936F
S113148081018BEF99E00E947C01CF91089588231C
S113149059F48FB7F894282F3327DA9880911002E3
S11314A08160809310022FBF0895882359F48FB769
S11314B0F894282F3327DA98809110028160809362
S11314C010022FBF0895EF92FF920F931F93809104
S11314D001019091020122E020938201EE24FF2475
S11314E087019701A801BC0184E00E94D1029927D9
S11314F0882311F0992704C08093760180E090E05E
S1131500813059F08FB7F894282F3327DA988091D7
S113151010028160809310022FBF1F910F91FF90E2
S1131520EF9008950F931F9340911E01842F9927E4
S1131530FC01EE0FFF1FE80FF91FDF01AB59BE4F8F
S113154020912C0130912D018D919C911197281798
S1131550390709F0F8C050914501852F9927843047
S11315609105B1F08530910564F48230910509F458
S113157095C0833091050CF0B5C0019709F47CC087
S11315800CC18730910574F109970CF006C135C080
S113159080912D0290912E028130910599F0813035
S11315A0910518F0029749F0F8C086E0809377011E
S11315B000E010E040E061E8EDC0E959FE4F8081B1
S11315C084608083842F9927FC01EE0FFF1FE80FAE
S11315D0F91FE959FE4F80818260808381E00E9477
S11315E03403DBC0E959FE4F808181FF06C0869534
S11315F086958695837009F0B3C0842F9927FC01E2
S1131600EE0FFF1FE80FF91FE959FE4F808181FF9C
S11316109FC05730E1F05530D1F05093450180918F
S11316209A01882319F08EE390E113C08091670139
S1131630982F927081FD03C090931E010DC080917C
S11316406A0181FD04C081E080931E0105C08AE324
S113165090E10E947C01A1C080911E019927FC01A8
S1131660EE0FFF1FE80FF91FE959FE4F8081877EB7
S113167080830E94920A91C08091740190917501B7
S113168090931E0280931D02809114019091150184
S1131690909349018093480181E009C0809114012D
S11316A090911501909349018093480182E08093C1
S11316B07701442311F064ED01C066ED20912D0201
S11316C030912E02842F9927FC01EE0FFF1FE80FA3
S11316D0F91FE959FE4F80818170890120E030E0D3
S11316E042E059C0809174019091750190931E025B
S11316F080931D02809114019091150190934901EA
S11317008093480183E080937701E959FE4F8081FB
S1131710857E8083442311F064E801C067E820914A
S11317202D0230912E02842F9927FC01EE0FFF1F0A
S1131730E80FF91FE959FE4F80818170890120E08B
S113174030E040E028C0E959FE4F808181FD03C0AC
S11317500E940F0E22C0869586958695837021F08F
S1131760842F0E945E0D19C080914501843019F4C4
S11317702D933C93D9CE85E080937701442311F0D7
S113178063E501C065E500E010E020912C01309193
S11317902D0140E081E00E94D00B1F910F9108952C
S11317A00F931F93782F862F642F80938C01C90188
S11317B0880F892F881F990B919580938D01220F93
S11317C0812F9927282B20938E0100938F016C5F22
S11317D060934F01772339F080919301882319F0A6
S11317E00E94F80B02C00E947F0D1F910F91089573
S11317F081E080933501DB981D9897ED80E02FB749
S1131800F894422F55272BB327772BBB97FDDF9AEC
S1131810DB9ACE9980682BBB96FDDF9ADB9ACE9932
S113182080642BBB95FDDF9ADB9ACE9980622BBB3B
S113183094FDDF9ADB9ACE9980612BBB93FDDF9AEE
S1131840DB9ACE9988602BBB92FDDF9ADB9ACE9906
S113185084602BBB91FDDF9ADB9ACE9982602BBB0F
S113186090FDDF9ADB9ACE9981604FBFDB9881E0CF
S113187090E00197F1F7CE9B03C080E090E006C0B2
S113188081E69CE00E947C0181E090E0892BC1F418
S113189080917701883061F4DB9ADB9800000000C6
S11318A080E090E0CE9902C081E090E080939901BD
S11318B081E0809339011D9A82E490E10E947C01C9
S11318C00895CE9B17C080917701883061F4DB9A2C
S11318D0DB980000000080E090E0CE9902C081E037
S11318E090E08093990181E0809339011D9A82E40C
S11318F090E102C081E69CE00E947C010895809101
S1131900350120917701882309F44AC090916A0136
S1131910892F8E7F80936A0130916701832F8E7F98
S1131920809367011092930110923501283039F5A4
S11319302091990180912E01222359F09927FC01CD
S1131940EE0FFF1FE80FF91FE959FE4F8081877ED4
S113195095C09927FC01EE0FFF1FE80FF91FE95905
S1131960FE4F9081892F8695869586958370823067
S113197010F49D7F4BC081E080939A0126C038719A
S113198011F4987151F02750223038F080E033235D
S113199009F481E00E945E0D08950E947F0D089570
S11319A0822F992784309105B1F0853091051CF47C
S11319B001975CF00CC08630910509F461C0863053
S11319C091050CF441C0079729F180E001C081E042
S11319D00E943403089581E08093930180911E0155
S11319E09927FC01EE0FFF1FE80FF91FE959FE4F7D
S11319F090819360892F86958695869583708F5FF5
S1131A008370880F880F880F937E982B90830E9491
S1131A10920A089588E08093770181E0809393018E
S1131A2080912E019927FC01EE0FFF1FE80FF91F8B
S1131A30E959FE4F8081816080838AE090E00197BC
S1131A40F1F70E94F80B089581E08093930180914F
S1131A501E0199279C01220F331F280F391FF901FA
S1131A60EB59FE4F80912C0190912D01808391833D
S1131A70F901E959FE4F808183608B7F8083C7CF52
S1131A8041E04093930180911E0199279C0102C07B
S1131A90220F331F4A95E2F7280F391FF901EB593A
S1131AA0FE4F80912C0190912D0180839183F90147
S1131AB0E959FE4F80818660808389CF0F931F93FD
S1131AC0282F87E08093770120932E01822F992776
S1131AD0FC01EE0FFF1FE80FF91FEB59FE4F222305
S1131AE011F060E601C061E600E010E02081318180
S1131AF040E081E00E94D00B1F910F910895CF9395
S1131B00DF9390E0A92FCCE8D1E080914F01482FDA
S1131B10552760919E0170919F01B92FDB981D9804
S1131B20B230B1F4ECE8F0E09727990FF11DE90F1A
S1131B30F11DC895362F202D3196C8953025B90151
S1131B404150504039F530939F0120939E015CC071
S1131B50BB2379F4A99141505040E1F4B09177014D
S1131B60C0911D02D0911E0240914801509149013B
S1131B7011C0B13029F499934150504059F444C0F4
S1131B80B33009F041C04115510509F43DC0A99194
S1131B904150504080E09FB7F894292F33279BB3DE
S1131BA097779BBBA7FDDF9ADB9ACE9980689BBB96
S1131BB0A6FDDF9ADB9ACE9980649BBBA5FDDF9AD4
S1131BC0DB9ACE9980629BBBA4FDDF9ADB9ACE9907
S1131BD080619BBBA3FDDF9ADB9ACE9988609BBB97
S1131BE0A2FDDF9ADB9ACE9984609BBBA1FDDF9AAC
S1131BF0DB9ACE9982609BBBA0FDDF9ADB9ACE99DB
S1131C0081602FBF982F8CCF81E0809339011D9A7A
S1131C1082E490E10E947C01DF91CF9108950F93BB
S1131C201F9384E08093770140911E01242F332772
S1131C30C901880F991F820F931FDC01AB59BE4F56
S1131C40FC01E959FE4F808182FF06C0442311F054
S1131C5068E807C069E805C0442311F063E801C0DF
S1131C6066E800E010E02D913C9140E081E00E94A4
S1131C70D00B1F910F910895CF93C82F20910B0182
S1131C8080E091E0821B9109069720F02A5F20935F
S1131C900B0117C010920B01809101019091020178
S1131CA001969093020180930101049731F482E03C
S1131CB090E0909302018093010183E69AE00E94F0
S1131CC07C0110922201C09381018BEF99E00E9464
S1131CD07C0181E090E0CF91089580933701909149
S1131CE02902913051F4813029F40E948A0E0E9415
S1131CF0FC070DC08FE99FE008C0992341F48130AF
S1131D0011F40E948A0E8CE49FE00E947C0181E021
S1131D1090E008952FEF30E080916101909162018D
S1131D20EBE6F1E001974FEF8F3F940731F02193F9
S1131D3001974FEF8F3F9407D1F720917B0180915A
S1131D406101280F20937B011092620110926101BE
S1131D5080E091E0821B910908970CF05EC010921C
S1131D607B0120911601309117012F5F3F4F309373
S1131D7017012093160140917C0150917D01CA0105
S1131D80969587952817390719F02417350701F513
S1131D901092220280913D0190913E018F5F9F4FEE
S1131DA039F480913F018F3F19F485E091E10EC031
S1131DB043E050E06DE371E08FE191E00E94E604BE
S1131DC010920A01109209018BE097E00E947C01B5
S1131DD0809116019091170120917C0130917D0131
S1131DE08217930749F481E08093070184E090E02F
S1131DF0909317018093160180910701813049F077
S1131E002150304080911601909117018217930759
S1131E1021F487E69FE00E947C0108958FBF089516
S1131E208FB7F89499270895EF92FF920F931F9319
S1131E30809197019091980121E020938201EE24F2
S1131E40FF2487019701A801BC0184E00E94D1020C
S1131E509927882311F0992704C08093760180E0A4
S1131E6090E0813059F08FB7F894282F3327DA980F
S1131E70809110028160809310022FBF809197019E
S1131E8090919801019690939801809397011F91E6
S1131E900F91FF90EF9008951092060180914D01EB
S1131EA02091370199278130910581F08230910585
S1131EB06CF08230910519F0039729F00895822F70
S1131EC00E94330A0895822F0E94470A0895EF92D0
S1131ED0FF920F931F9360911601709117016F5F2A
S1131EE07F4F80917C0190917D016817790711F4EF
S1131EF064E070E010928201EE24FF2487019701D0
S1131F00A80184E00E94D1029927882311F099271F
S1131F1004C08093760180E090E0813059F08FB75F
S1131F20F894282F3327DA988091100281608093E7
S1131F3010022FBF1F910F91FF90EF900895109200
S1131F40060180914D012091370199278130910537
S1131F5081F0823091051CF4892B39F00895823088
S1131F60910571F0039749F00895822F0E94850826
S1131F700895822F0E94CB080895822F0E94250A7B
S1131F8008951092060180914D01209137019927FF
S1131F908130910581F0823091051CF4892B39F050
S1131FA008958230910589F0039761F00895822F96
S1131FB00E945B050895209390018DEE98E00E94A5
S1131FC07C010895822F0E94550A08958091820110
S1131FD099278130910559F08230910544F4892B79
S1131FE031F480E098E090937D0180937C01089522
S1131FF0EF92FF920F931F93609185017091860178
S113200090911F0280914401292F280F312D311DF9
S1132010A9014E5F5F4F2091180130911901809101
S1132020A0019927EE24FF248C0181E00E94D102B3
S11320309927882311F0992704C08093760180E0C2
S113204090E09927813079F080918201992781303D
S1132050910559F08230910544F4892B31F480E0E4
S11320600E94F90402C0809338011F910F91FF90E0
S1132070EF90089581E00E943403089580E00E9467
S11320803403089580913901882321F01092390195
S11320900E947F0C0895AF92BF92CF92EF92FF926D
S11320A00F931F93AA24BB24CC247501850123E03C
S11320B04AE451E06FE171E08C2D0E9423068130E7
S11320C061F08FB7F894282F3327DA9880911002A3
S11320D08160809310022FBF03C082E0809330019F
S11320E01F910F91FF90EF90CF90BF90AF90089504
S11320F0CF92DF92EF920F93809100018130A9F487
S1132100809122029927FC01A3E0EE0FFF1FAA95FC
S1132110E1F7E81BF90BE35CFE4F8FEF9FEF808341
S113212091838FEF82831092000140912202842FC9
S11321309927FC0173E0EE0FFF1F7A95E1F7E81B86
S1132140F90BE35CFE4F808191819093950180931C
S1132150940182818093960130913C01238187E030
S1132160489FC0011124835C9E4F6C01E22E032F13
S11321702EE032E043E064E971E080E00E9463070E
S1132180813059F08FB7F894282F3327DA9880914B
S113219010028160809310022FBF0F91EF90DF90A7
S11321A0CF900895AF92BF92CF92EF92FF920F9388
S11321B01F93CF93C3E0AA24BB24CC24BCE3EB2E0F
S11321C0B1E0FB2E0EE012E02C2F4AE451E06FE167
S11321D071E08C2D0E942306813061F08FB7F89452
S11321E0282F3327DA98809110028160809310029F
S11321F02FBF02C0C0933001CF911F910F91FF9068
S1132200EF90CF90BF90AF900895089531E0309350
S1132210A101409109028FB7F894992720912201D6
S1132220309322018FBF222319F481E090E002C091
S113223080E090E0813019F080E090E013C083E00A
S1132240489FC00111248A5D9D4F43E050E0BC01CA
S113225082EA91E00E94E60481E491E10E947C011B
S113226081E090E0813031F0109281018BEF99E0B0
S11322700E947C01089581E0809311011092220153
S113228008951092220143E050E062EA71E084E292
S113229091E00E94E60440E050E065EA71E080E0ED
S11322A00E94C405813031F0109281018BEF99E0D6
S10922B00E947C01089568
S10722B6010200001D
S9030000FC
